:020000040800F2
:100000000080012059340008A9340008F5210008B7
:10001000FB21000801220008072200080000000060
:10002000000000000000000000000000BD03000808
:10003000A934000800000000550400086504000809
:10004000A9340008A9340008A9340008A93400081C
:10005000A9340008A9340008A9340008A93400080C
:10006000A9340008A9340008A9340008A9340008FC
:10007000A9340008A9340008A9340008A9340008EC
:10008000A9340008A9340008A934000800000000C1
:10009000000000000000000000000000A93400087B
:1000A000A9340008A9340008A9340008A9340008BC
:1000B000A9340008A9340008A9340008A9340008AC
:1000C000A9340008A9340008A9340008A93400089C
:1000D000A9340008A9340008A93400080000000071
:1000E000A9340008A9340008A93400080000000061
:1000F000000000000000000000000000A93400081B
:1001000000000000A9340008A9340008A934000840
:1001100000000000000000000000000000000000DF
:10012000A9340008A9340008A9340008A93400083B
:10013000A9340008000000000000000000000000DA
:10014000000000000000000000000000A9340008CA
:10015000A9340008A9340008A9340008A93400080B
:10016000A9340008A93400080000000000000000C5
:10017000000000000000000000000000000000007F
:1001800000000000A934000800000000000000008A
:10019000A934000810B5054C237833B9044B13B1CA
:1001A0000448AFF300800123237010BDA00B002092
:1001B00000000000547B000808B5034B1BB1034945
:1001C0000348AFF3008008BD00000000A40B00202E
:1001D000547B0008154B002B08BF134B9D46A3F51D
:1001E000803A00218B460F461348144A121A05F034
:1001F00065FE0F4B002B00D098470E4B002B00D014
:1002000098470020002104000D000D48002802D06E
:100210000C4802F089FE05F053FA2000290001F095
:1002200089FC03F077F800BF00000800008001207F
:1002300000000000911A0008A00B002018270020E1
:10024000292F00080000000070B51B4E1B4C1C4DF0
:100250002DED028B9FED1B8A304601F095FD07EED8
:10026000100AF6EE007AB4EEE77AF1EE10FAD5BF96
:100270002368A368E2682268CEBF1A601B0413607B
:10028000304601F081FD06F085F902460B4628460E
:1002900002F0D8FA18EE100A06F07CF902460B4676
:1002A000284602F0CFFAF7EE007A642038EE278A6B
:1002B00003F0C4F8D0E700BFBC0B0020100C0020F6
:1002C000F369000800000000F8B50546074655F838
:1002D000044B8CB90D4E306818B14FF0FF3100F06F
:1002E000EDFE3C6824B9284603F068F82C463D60D2
:1002F000306808B100F0FAFEAC4204D08B22044909
:10030000044802F0D3FA2046F8BD00BF0C250020B7
:1003100078690008D069000808B50348FFF7D4FFE2
:10032000BDE8084003F052B82C13002008B503487C
:10033000FFF7CAFFBDE8084003F066B82C130020A1
:1003400038B50546064B45F8043B0446FFF7E4FF85
:10035000284601F05CFD2046FFF7E8FF204638BD47
:100360006869000810B50446FFF7EAFF20465421EB
:1003700002F0F3FF204610BD10B50B4C0B4A0121D3
:10038000204601F013FD0A4A0A49204602F0CAFD40
:10039000094B00211C22184605F090FD0421BDE800
:1003A000104001F085BD00BFBC0B00200000C07FE5
:1003B0009801002041030008100C00201EF0040FDB
:1003C0000CBFEFF30880EFF30980816911F8021C7C
:1003D00091BB01B590E80F10E047BDE800508CE8F4
:1003E0000300244B93E80600914208BF704741B9CF
:1003F0001EF0100F10D12049086820F0010008609D
:100400000AE02CE9F00F1EF0100F08BF2CED108A47
:10041000C1F838C081F822E01A6092F82210906B7F
:1004200061F0FF0E1EF0100F08BFB0EC108AB0E8AC
:10043000F00F80F309887047104A13689942FAD880
:1004400001B552F821C00FC8E047BDE80050CCF814
:100450000000704701B500F0A7FEBDE80140EFF3D2
:10046000098CBEE701B500F067FEBDE80140EFF37F
:10047000098CB6E7B001002034EF00E0A46A000860
:1004800008B5014610B1132001F0ACF9002008BDF9
:1004900008B5EFF305832BB9EFF3108313B9EFF32E
:1004A000118333B16FF0050000F00AF86FF005001A
:1004B00008BDDFF808C000DFFAE700BF81040008CC
:1004C0007047EFF310832BB9EFF31180003018BFA2
:1004D000012070470120704770B5484C217A0129EE
:1004E00000F08A8031B14FF0FF3001F013FC4FF083
:1004F000FF3070BD424D9C2204F1080005F0DEFC87
:10050000D5E90B61EB68E3652B8AA4F854303046DB
:10051000AB68236400F0FEF808B1C4F88060D5E948
:100520000561304600F0F6F808B9D4F880606667D7
:10053000D5E90761304600F0EDF808B9D4F88060DD
:10054000A667D5E90961304600F0E4F808B9D4F8A7
:100550008060E6676E6B3EB1D6E9022331683046B3
:1005600000F046F9C4F88460AE6B3EB1D6E90223D0
:100570003168304600F03CF9C4F88860EE6B3EB15B
:10058000D6E902233168304600F032F9C4F88C60B5
:100590002E6C3EB1D6E902233168304600F028F9CE
:1005A000C4F890606E6C3EB1D6E9022331683046E3
:1005B00000F01EF9C4F89460AE6C3EB1D6E9022397
:1005C0003168304600F014F9C4F89860EE6C3EB122
:1005D000D6E902233168304600F00AF9C4F89C607D
:1005E0002D6D3DB1D5E902232968284600F000F9B8
:1005F000C4F8A0500123237200207AE79C01002058
:100600003C6A000870B5264C237A012B07D06FF0A6
:10061000060001F07FFB4FF0FF35284670BD01F06A
:1006200047F910B94FF0FF30F3E71E4A1E4E1F493D
:100630007068FF2382F8223092F82230D26863F08B
:10064000FF03DB4314BFB3FA83F32023C3F120037A
:10065000C2F30222934298BF531CFE2202FA03F314
:10066000104ADBB2D37701F0D3F905460028D9D17F
:1006700001F00AFA206101F0EBF90D4800F0EEFEFE
:1006800000F068FF336813F0010F4FF0020303D04E
:1006900083F314882372C0E7032282F31488F9E7F6
:1006A0009C01002000ED00E03C6A000865040008A1
:1006B000B80100207047000008B5FFF7FBFFEFF31B
:1006C000058333B16FF0050001F024FB6FF00500E6
:1006D00008BDFFF7F6FE0028F4D1DFF808C000DF00
:1006E000F6E700BFD904000808B5EFF3058333B17E
:1006F0006FF0050001F00EFB6FF0050008BDFFF77D
:10070000E0FE0028F4D1DFF808C000DFF6E700BF04
:100710000506000810B5034688B1084310F007002D
:100720000DD117290AD9196008391022CC189C60FC
:100730005A60C85099684A60D860012010BD0020F6
:10074000FCE7F0B578B399B132F003032BD10F3148
:1007500021F0070700F108031E685C68F11A24F015
:100760000304091B8F4205D9316833460029F3D1B0
:100770000846F0BD456804683D444560204408389B
:1007800041688D4288BF45605C683A431CB95A6035
:1007900003F10801ECE724F0030419191E514A6023
:1007A00019600831E4E70021E2E730B590B1D9B132
:1007B000A1F1080500F108040022AC420BD151F868
:1007C000043C23F0030443681B1B436042B941F817
:1007D000042C012030BD236822463BB11C46ECE7C7
:1007E00051F8083C1360F4E70846F3E71846F1E7D0
:1007F00030B5C0B189B1C2B1CBB10024C0E901426A
:1008000002FB01F41D190160C360436105611846D4
:10081000013904D1A21A99500121084630BD85182A
:1008200005602846F4E70146F7E71146F5E7194663
:10083000F3E710B50346A8B100F1140252E8000F27
:1008400010B9BFF32F8F04E0016842E8001404B12F
:10085000F4E738B1043353E8002F511C43E8001487
:1008600004B1F8E710BD30B5F0B1C3688B421BD8B6
:1008700003698B4218D900F114031A680A60BFF3A8
:100880005F8F53E8002F0C689442F6D143E80015BF
:1008900005B1F2E7043050E8003F5A1E40E800215D
:1008A00001B1F8E7002030BD6FF00300FBE7EFF384
:1008B00010832BB9EFF31180003018BF012070476F
:1008C00001207047036B30B5E3B1CD780024DA78AE
:1008D000AA420FD31A46C1E901248AB19160A4B19A
:1008E0006160283050E8003F5A1C40E8002101B107
:1008F000F8E730BD5A681C46002AECD01346E6E7FC
:10090000C162ECE7C1E90133C1620163E9E7D1E902
:10091000013223B19A608A681AB153607047C2628B
:10092000F9E703637047F8B5867804468EB3C56867
:1009300001460026284605F10C07FFF7E8FF267060
:100940003846FFF790FFAB68002B48D03846FFF7DA
:1009500070FF0446002842D0284600F07FFD324652
:100960000746314600F02CFE384600F0D5FD6A6A95
:100970008168074604F10C0005F006FAF92323709C
:10098000A670FB68E37021462846BDE8F840FFF7F3
:1009900099BF8568AB68002BF5D05B78832BF2D1CB
:1009A000284600F05BFD32463146074600F008FE5F
:1009B000384600F0B1FD06466A6A806804F10C0111
:1009C00005F0E2F9F3680BB1E2781A7000232370A6
:1009D000214605F10C00BDE8F840FFF744BFF8BD23
:1009E0002DE9F84F8946074600B131B96FF0030190
:1009F000002001F0A1F9002477E0CD1C25F00305CB
:100A00000C35B0FA80F104D0B5FA85F30B441F2BF6
:100A1000ECDD05FB07FAF2B194683CB1A30702D103
:100A2000D368332B05D86FF00801E1E7D368002BBA
:100A3000F9D1D2E90463D2F800803EB116F0030B7D
:100A400001D19A4554D96FF00901D1E7002BFAD1B1
:100A50001CB19B460CE090461646274BD3F8A000ED
:100A6000D8B1FFF7E6FE0446A0B14FF0010B36BB4C
:100A7000214B00225146D86FFFF763FE0646C0B9EE
:100A8000BBF1000F06D01C4BD3F8A000214658B193
:100A9000FFF7E9FE6FF00401AAE701223421D3F841
:100AA0008000FFF74EFEDEE7D3F88000FFF77DFE03
:100AB000F0E75246002105F001FA4BF0020BFA2351
:100AC00023700023A360C4E90993C4E90B332A46C9
:100AD000334684F802B0C4F80480394604F10C00AF
:100AE000FFF786FE044B054A1A672046BDE8F88FDB
:100AF000002CE4D1B1E700BF9C01002027090008C9
:100B00002DE9F0410C4617469846054618B1037882
:100B1000FA2B00D141B928466FF0030101F00CF91E
:100B20006FF00300BDE8F0818368C3B15B78832B6D
:100B300015D100F093FC01220646002100F040FD93
:100B4000304600F0E9FC06466A6A8068214605F0F6
:100B50001BF9F0680028E5D007700020E2E705F1F6
:100B60000C00FFF766FE064670B121466A6A0C303B
:100B700005F00AF90024F9233370B470F770314698
:100B80002846FFF79FFEE8E7B8F1000F10D0414676
:100B9000932000F027FE40B1074B2846596900F02A
:100BA0004BFCEFF30983C3E902476FF00100B9E79B
:100BB0006FF00200B6E700BF9C01002010B500F105
:100BC000280353E8002F12B9BFF32F8F04E0511E02
:100BD00043E8001404B1F4E70AB9002010BDC06A6C
:100BE00001230028F9D0821CD2E84F1FC2E8443FFD
:100BF00004B1F9E711F0FF0FF0D08068F1E70000D1
:100C00002DE9F0410F4614469846054618B1037881
:100C1000FA2B00D141B928466FF0030101F08CF89E
:100C20006FF00300BDE8F081FFF7C8FF064600281B
:100C30003AD001462846FFF76AFE6A6A06F10C01BF
:100C4000384605F0A1F80CB1F3782370002405F1C3
:100C50000C07347031463846FFF705FEAB680BB918
:100C60000020DFE73846FFF7E4FD06460028F7D00E
:100C7000284600F0F3FB21460746012200F0A0FCC5
:100C8000384600F049FC6A6A8168074606F10C00A4
:100C900005F07AF8F9233370B470FB68F3703146CD
:100CA0002846FFF70FFEDBE7B8F1000F10D04146F2
:100CB000832000F097FD40B1074B2846596900F0AA
:100CC000BBFBEFF30983C3E902746FF00100A9E7EE
:100CD0006FF00200A6E700BF9C01002010B504469B
:100CE000EFF3058333B100206FF0050101F024F824
:100CF000002010BDFFF7DBFD0028F4D12046DFF80F
:100D000008C000DFF5E700BFE10900082DE9F04168
:100D100006460F4690461C46EFF305834BB196B945
:100D200030466FF0030101F007F86FF00300BDE8F3
:100D3000F081FFF7BCFD0028F1D130462346DFF8F3
:100D400048C000DFF3E73378FA2BE9D1002FE7D072
:100D5000002CE5D106F10C00FFF76BFD054680B1D4
:100D6000726A39460C3005F00FF8F92328462B70CB
:100D7000AC7085F80380C5E9017600F05DFA204685
:100D8000D5E76FF00200D2E7010B0008F8B5044682
:100D90000F4616461D46EFF3058343B18CB9204636
:100DA0006FF0030100F0C8FF6FF00300F8BDFFF71C
:100DB0007EFD0028F2D120462B46DFF844C000DF3C
:100DC000F4E72378FA2BEAD1002FE8D0002DE6D102
:100DD0002046FFF7F3FE054670B100F10C01626A90
:100DE000384604F0D1FF0EB1EB7833702846EC6042
:100DF00000F022FA0020D9E76FF00200D6E700BF2A
:100E0000010C0008EFF310832BB9EFF311800030D1
:100E100018BF0120704701207047000070B5A8B3CB
:100E20008468D0E900566CB114F0030302D1C268A3
:100E30001B2A1AD86FF00801002000F077FF002469
:100E4000204670BDC368002BF4D1124BD3F8940038
:100E500030B901221C21D3F88000FFF772FC01E0B9
:100E6000FFF7E7FC044660B10123F522A3700023DD
:100E70002270E6706560C4E90233C4E90433237666
:100E8000DEE76FF0040100F051FFD9E705460646A2
:100E9000DBE700BF9C010020284B70B55D6904466C
:100EA0000E4635B96FF0070100F040FF4FF0FF30FC
:100EB00070BD10B10378F52B07D020466FF0030109
:100EC00000F034FF6FF00300F2E7037E53B9C0E98E
:100ED0000353EB6A436103B11861EC62012323768B
:100EE0000020E5E7C278D1070DD5C168A9420AD133
:100EF000FF2B06D16FF00F0100F018FF6FF002001A
:100F0000D6E70133EBE7002EF8D093070AD5E06867
:100F100095F9203090F920209A4203DA80F82030A9
:100F200000F0AEFA3146532000F05CFC18B12946BF
:100F3000204600F081FA6FF00100B9E79C01002023
:100F400038B52F4B5A69044632B96FF0070100F0EB
:100F5000EDFE4FF0FF3038BD10B10378F52B07D010
:100F600020466FF0030100F0E1FE6FF00300F2E7AE
:100F7000037E33B96FF00E0100F0D8FE6FF002006F
:100F8000E9E7C168914202D06FF00D01F4E7013B3F
:100F9000DBB2037633BB43690BB101691961216987
:100FA00011B34B61E3789B0705D592F92110D36A01
:100FB000E3B982F82010A3688BB1204600F04EFA06
:100FC00000220546114600F0FBFA00232361EB6A7C
:100FD000E560636103B11C610123EC6223760020AC
:100FE00000F0C2FA0020B6E7D362DBE7986820B1D0
:100FF00090F920008142B8BF01465B69D8E700BF85
:101000009C0100202DE9F0410446002601270CB97F
:10101000BDE8F081E378D4F814801B0712D5A368EB
:1010200026767BB1204600F019FA002205461146CB
:1010300000F0C6FAEB6A6361C4E9035603B11C61B0
:10104000EC6227764446E2E710B4C3789B071AD5D2
:10105000C06890F92130C26A94688C4208BF8C68DD
:1010600024B194F92040A342B8BF23465269002A14
:10107000F2D190F920209A4205D080F820305DF816
:10108000044B00F0FDB95DF8044B704708B502460B
:10109000EFF3058333B100206FF0050100F046FE49
:1010A000002008BDFFF7AEFE0028F4D11046DFF89F
:1010B00008C000DFF5E700BF1D0E000808B50246B6
:1010C000EFF305833BB110466FF0050100F02EFEF3
:1010D0006FF0050008BDFFF795FE0028F3D110461C
:1010E000DFF804C000DFF5E7990E000808B50246F6
:1010F000EFF305833BB110466FF0050100F016FEDB
:101100006FF0050008BDFFF77DFE0028F3D1104603
:10111000DFF804C000DFF5E7410F000810B5D0E8A4
:101120005F3F5A1C914200D80022C0E8542F04B1FE
:10113000F5E798B210BD000038B51A4C00F09EFCDF
:10114000E3680133E360236D03B1984700F0B2F91F
:10115000002000F009FA236C1BB3A26BA1698A423C
:1011600002D0A163E3631CE0E36BB3B9237A022BE3
:1011700017D1656AADB195F9201092F920309942E6
:101180000FD1284600F073F9A06B00F08BF92846C8
:1011900000F0E0F9A563236CE4E7013BE363002B77
:1011A000E4D038BD9C01002070B5224C04F15605F6
:1011B00004F15A06B4F85410D5E85F3F13B9BFF3F1
:1011C0002F8F04E05A1EC5E8502F00B1F4E79BB200
:1011D0005BB33046FFF7A2FFE36D53F8200020B366
:1011E0000378F13B082BE5D801A252F823F000BFA9
:1011F00015120008B51100081B120008B5110008EF
:10120000B51100081F12000823120008B5110008CC
:1012100027120008236E9847CCE7636EFBE7A36EA6
:10122000F9E7E36EF7E7236FF5E70020BDE87040CC
:1012300000F09AB99C01002070B5164C0546B4F830
:10124000541004F15602D2E85F3F994202D8BFF32E
:101250002F8F04E0581CC2E8560F06B1F3E79BB28B
:10126000994205D829460220BDE8704000F00ABD29
:1012700004F15800FFF752FFE36D43F82050637A02
:1012800023B9054B4FF080525A6070BD0123A37201
:10129000FBE700BF9C01002000ED00E0EFF31083AE
:1012A0002BB9EFF31180003018BF012070470120E7
:1012B00070470378F12B00D07047C068F9E7000051
:1012C00010B50123094A437090F92010536A1C326B
:1012D0001BB193F920408C4205DCC0E902329060DA
:1012E00003B1D86010BD1A469B68F1E79C0100204D
:1012F000014B5869704700BF9C01002008B500F001
:1013000021FDDFF810C000DF4FF0FF31002000F0BA
:1013100007FDFEE751180008930710B502F001041D
:1013200022D400F1280384B153E8000F00EA01023F
:101330008A4203D0BFF32F8F002005E020EA01028C
:1013400043E8002404B1EFE710BD53E8000F084262
:1013500003D1BFF32F8F002005E020EA010243E80C
:10136000002404B1F1E7EFE7806A01EA00031CB151
:10137000994218BF0020E7E7002B08BF0020E3E7F1
:1013800010B5084A136B00213BB94FF0FF34C4611C
:10139000C0E9043121B1086110BD19461B69F3E7AA
:1013A0001063F9E79C01002010B5C469621CD0E904
:1013B00004310AD103B1596142691AB113610023A2
:1013C000436101E0064A136310BD1BB1DA6959613C
:1013D0002244DA614269002AF0D1014AD362F3E77C
:1013E0009C01002010B50023038083789A070446EF
:1013F00008D513F0100F016B0E4B0FD0D3F88400FB
:10140000FFF731FAA378DB0712D50A4BD3F888002F
:10141000214638B1BDE81040FFF725BA586FFFF7F5
:10142000C4F9EFE7D3F88000BDE81040FFF7BDB97D
:1014300010BD00BF9C01002010B591F920208368E9
:101440001BB193F92040944205DAC1E90230816072
:1014500003B1D96010BD18469B68F1E783689A68AC
:10146000826002B1D0600022DA6018467047C2681C
:101470002AB18368936003B1DA600023C3607047C8
:1014800010B50146044664B12378F12B07D0084615
:10149000FFF7EDFF2046BDE81040FFF7CDBFE46841
:1014A000F1E710BD0123014643700148FFF7C4BFB7
:1014B000B801002038B5174DEC6AC4B1E369013BAF
:1014C000E361A3B96378632B18D011D8432B15D0EF
:1014D000532B17D02046FFF7CAFFFFF7E3FF24691D
:1014E00024B1E369002BEDD000236361EC6238BDC9
:1014F000832B03D0932B01D0732BEBD12046FFF726
:10150000D8FEE7E72046FFF7D4FE2146FFF79CFD13
:10151000E0E700BF9C01002090F82230826B13F0BE
:10152000100F0CBF6020202010447047074B5969F2
:1015300051B10B6B8A6B934203D21A68044B9A42E7
:1015400002D0012000F09EBB704700BF9C0100202C
:10155000A52E5AE208B502234370024B9861FFF7AB
:10156000E5FF08BD9C01002010B5144B04461A7A13
:101570005969A0B9022A1FD15C6AECB194F9202004
:1015800091F920309A4217DD2046FFF770FF084698
:10159000FFF796FE2046BDE81040FFF7DBBF022AAA
:1015A00005D190F9202091F920309A42EFDC2046B5
:1015B000BDE81040FFF776BF10BD00BF9C010020C2
:1015C00038B504461546FFF7A7FF01602046FFF730
:1015D000EBFE1DB1BDE83840FFF7C6BFBDE838409F
:1015E000FFF760BF10B54378332B04460CD1416A36
:1015F00090F82320FFF790FE014628B120460022F4
:10160000BDE81040FFF7DCBF10BD00002DE9F04F32
:1016100085B08246029128B96FF0030100F080FB8B
:101620000024BCE0002A45D0966846B1B40702D138
:10163000D368432B06D86FF008010020EEE7D3688B
:10164000002BF8D1D2E9044597693CB1600702D17B
:10165000002D40F0B2806FF00A01EEE72FB17B1E43
:10166000372B03D96FF00B01E7E71827002D40F067
:10167000A880D2E9009301934EBB554BD3F8880064
:10168000F0B1FFF7D6F8064600283AD04FF001082F
:10169000002C44D1DFF838B1E5B94E4ADBF88400BC
:1016A000556DB8B1FFF7C5F80246E0B148F0100833
:1016B000344623E091461446182715460192DCE78C
:1016C00001224421D3F88000FFF73BF8DBE74FF01D
:1016D0000008DDE722462946DBF87400FFF731F801
:1016E00002460028E4D1B8F1000F16D0DBF88820BC
:1016F00052B110463146FFF7B6F8002248F0020812
:101700007CB96FF0040198E73146DBF88000039262
:10171000FFF74BF8039A1446F0E74246EEE72246FD
:10172000344640F2F1132380019BE3700023C4E9A7
:101730000233C4E90433C4E90633C4E90933C4E914
:101740000B32A5F1400313447FB2C4E90E3AFD21E8
:10175000214B84F80280C4F8049084F8207084F847
:1017600021706184656313601A4B1B685B071AD490
:10177000A36B00201A4603F1340143F8040B99428D
:10178000FBD1164BC2E90D3A4FF08073D363029B35
:1017900013620F4B124A1A662046FFF7E5FE2046F9
:1017A00005B0BDE8F08FAD08113D4FF0CC33002DF2
:1017B000DED042F8043F013DF9E7002F7FF44FAF40
:1017C000182769077FF447AF472D3FF652AF42E72E
:1017D0009C0100203C6A0008A52E5AE2FD12000878
:1017E000E515000838B5184A137A022B144627D19C
:1017F000536A3BB352694B1C507009D11046FFF736
:10180000BFFD1248FFF72AFEFFF7A4FE012038BDF6
:10181000E36A002013B1DD69A9420BD2D161C2E9AC
:10182000043058B10261002BEBD0D8695A61411ADB
:10183000D961E6E71846491B1B69EBE7E262F2E76C
:101840000020E4E71846E2E79C010020B8010020F0
:1018500038B5154D2B7A022B25D16B6A1BB36C69F9
:10186000E06AFFF7CFFBA06918B100221146FFF72D
:10187000A7FEEFF309830D48A363FFF7EFFDFFF722
:1018800069FE00236B61E278D20704D42046BDE8EC
:101890003840FFF7A7BD04226270E3606B6BA36062
:1018A00003B1DC606C6338BD9C010020B8010020EE
:1018B00038B50B4C0B48A26D0B4D0021FFF7A6FE6F
:1018C000636EA8624BB1E26D08480021FFF79EFEEF
:1018D000A864003018BF012038BD0120FCE700BF1C
:1018E0003C6A00087D1C00089C010020D5190008F6
:1018F00010B50446EFF3058333B100206FF0050106
:1019000000F00EFA002010BDFFF7C8FC0028F4D14B
:101910002046DFF808C000DFF5E700BF0D1600081D
:1019200008B5EFF3058313B1054B586908BDFFF700
:10193000B5FC0028F8D1DFF80CC000DFF6E700BFE7
:101940009C010020F11200080C4A536C30B50024B1
:1019500013B11D698D420AD90161C0E902431BB16F
:101960001D699860691A19612CB1E06030BD1C4690
:10197000491BDB68ECE75064F8E700BF9C010020DE
:1019800070B5134D6C6C04B32369013B23610126D0
:101990002369D3B9E3680BB1A2689A606B64002332
:1019A0001A4604F11801E86CFFF7B0F918B12146A6
:1019B000032000F067F9E378012B07D16169204625
:1019C000FFF7C2FF6C6C002CE2D170BD6670F9E7C6
:1019D0009C0100200B4B0C4C07B51A6E586E082169
:1019E000FFF77CF9094AE06422654FF0FF330022DB
:1019F0006946E06CFFF7CAF90028F6D1DDE900304E
:101A00009847F2E73C6A00089C0100208119000811
:101A1000A8B10C4B1B68B3FBF0F00138B0F1807F2C
:101A20000DD2094BFF2283F82320A3F54F63062232
:101A30001A60586000209860044B187070474FF08F
:101A4000FF3070475003002000ED00E078120020C6
:101A5000074B1A782AB100221A70064B4FF08062A9
:101A60005A60054A136843F001031360704700BFD2
:101A70007812002000ED00E010E000E0014B1B6850
:101A8000704700BF10E000E04FF0FF3070470000EB
:101A900008B5094B094A1A60094B9B1A094A136099
:101AA000094B0A4A1A600A4B9B1A0A4A136000F053
:101AB00051F800F083F800BFE0120020007C012004
:101AC00000800120DC12002098140020182700203C
:101AD000007C0120941400200E4838B50E4B0360A2
:101AE0000B251C240D4B4560C4608360FFF7CEFAC4
:101AF0000B4B18600B480C4BC460C0E900350B4B16
:101B00008360FFF7C3FA0A4B1860BDE8384003F062
:101B1000D7BD00BFAC1200201B6B0008C012002014
:101B2000BC1200207C120020286B000890120020BC
:101B30008C120020FEF788BB024B4FF0FF31186873
:101B4000FFF7BCBABC120020014B1868FFF7CEBAF1
:101B5000BC12002008B500F00DFB0C4B0C49986836
:101B60004FF00053C21802F16042126843F8042B90
:101B70008B42F7D1054B4FF000529A6001F052FFB3
:101B800002F0ACFABDE8084000F015B800ED00E046
:101B9000940100207047704708B500F043F8FFF744
:101BA000F9FFFFF799FFFFF7F6FF01F0C3F8BDE873
:101BB0000840FFF7BFBFFEF77FBD0000114C124B7E
:101BC00023614FF4805363614423E3600F4BA360B0
:101BD000182307B5A36122460D4B0E482360002150
:101BE000FFF786FE034628B90B49009022460B48B2
:101BF00001F0A8F8FEF778FD002300931A46084983
:101C0000F5E700BFE8240020E8140020E4120020DB
:101C1000446B0008991B0008496B00081D010180F6
:101C2000656B00081FB5064B0FCB6C4684E80F00B0
:101C30002046FFF72BFA034B186004B010BD00BF1D
:101C4000346B00080C25002073B506460C4615467B
:101C500001F072F858B906342ABF064B064953F80A
:101C60002410002300933246284601F06BF802B09E
:101C700070BD00BF8C6B0008AC6C000808B500F0AC
:101C80007BF8000007B5411E02460023042923D833
:101C9000DFE801F0030A10161C00124912480093F5
:101CA0000122002301F04EF80093022200230F4985
:101CB0000F48F7E70093032200230E490E48F1E78F
:101CC0000093042200230D490D48EBE70093052201
:101CD00000230C490C48E5E700930C490C4800230D
:101CE000E0E700BFA46B000825010280C56B000877
:101CF00026010280EA6B0008270102801F6C0008A1
:101D0000280102805A6C00082A0102809A6C00089F
:101D100000010280014A0146FFF796BF31010180B0
:101D2000014AFFF791BF00BF32010180014AFFF76E
:101D30008BBF00BF33010180014AFFF785BF00BFA1
:101D40003801018010B5FFF7EBFD034B1B6813B1A1
:101D5000BDE81040184710BD2813002008B500F05A
:101D600063FE01F009F801F041F801F01BF8BDE84D
:101D7000084000F06FBE000008B5024C2368984789
:101D8000FCE700BF4002002038B50546044655F880
:101D9000043B9B689847284601F03AFD23680546B6
:101DA000DB6820469847284638BD000038B5084B08
:101DB0000360044602650D46FEF7AEFA2946201D73
:101DC00001F020FC2046FEF7B1FA204638BD00BFE6
:101DD00068690008036801221B690021184703682D
:101DE00000221B69114618476FF01500704700204C
:101DF000704700290CBF6FF01800002070470120C9
:101E0000704784B001A880E80E0004B070477047A6
:101E1000EFF3108372B6054A117831B9DB430449F8
:101E200003F001030B70012313707047551300205A
:101E30005413002008B5EFF31083DB0704D43622D7
:101E40000549064800F032FD054B00221A70054B8B
:101E50001B7803B162B608BD576D0008AD6D000870
:101E6000551300205413002038B504460D4603686E
:101E70005AB1826813602046012101F091FD294684
:101E80002046BDE8384001F087BDC2681B04F1E779
:101E900070B50E460446154601F05EFD013606D0CB
:101EA0002A4620460021BDE87040FFF7DDBF70BD27
:101EB0000022FFF7EDBF0000884207B502460AD0B6
:101EC000431C08D0013105D0002300930449054884
:101ED00000F038FF0146084603B05DF804FB00BF80
:101EE000C76D000830010180B1F900305A1C01D1E2
:101EF00018467047834201D1486870470C31F3E7B8
:101F0000421C13B504460AD0FFF7EEFF431C06D16E
:101F10000023009322460349034800F013FF02B058
:101F200010BD00BFD86D000830010180B1F900304C
:101F30005A1C01D118467047834201D18868704706
:101F40000C31F3E72DE9F041446894F8325075BB49
:101F500003685B689847226A824228D0236920621E
:101F6000821AA0681A40A2FB000194F93420BAB189
:101F7000636AC61841F10007002A1ADBC2F1200586
:101F800026FA02F0A2F1200307FA05F5284327FA02
:101F900003F3184327FA02F100FA02F2B61A666256
:101FA000D4E90A321B1841EB0202C4E90A32BDE847
:101FB000F081D4F80C80304642462B46394604F076
:101FC00041FB08FB1066EAE7824206D98A420BD938
:101FD000884294BF002001207047884206D98A4277
:101FE0008CBF0020012070470120704700207047FF
:101FF0002DE9F04745682F6B27F07F4727F0FF0753
:102000000646002F64D1FFF79DFF6B68002B61D05F
:10201000D3E90001D5E90A238B4208BF824204D3E9
:102020003368BDE8F0475B6918477468D4E90A3241
:10203000B0EB030861EB0209D4E906234B4508BF66
:102040004245D4F814A021D3E36894F933C0A3FB2C
:10205000080103FB0911BCF1000F14D0A268531E44
:1020600010EB030841F10009BCF1000F1CDBCCF1BF
:102070002002ACF1200328FA0CF009FA02F2104316
:1020800029FA03F31843824528BF8246226A2B6A45
:10209000924422690AEA020A53450BD140F2C9125E
:1020A0001149124800F002FC3B464046494604F004
:1020B000C9FAE8E7336850461B69984733685B689C
:1020C000984752460146286AFFF77EFF0028A7D1AD
:1020D000BDE8F0876B69286A2A69184433681040A4
:1020E0001B69BDE8F0471847F86D0008446E00080A
:1020F00070B5054600F098FCD5E90034DB689847D8
:1021000094F832301BB1BDE8704000F0A3BC01234D
:1021100084F831306368ABB12846FFF713FF666877
:10212000D4E90A01D6E90023994208BF904209D3B5
:102130006B685A68F36863602368002BEAD0906884
:102140009847E7E7002384F831302846FFF750FF2F
:10215000D9E77047024B1B680BB10248184770471C
:1021600044020020686E0008B1F90C20B1F9041097
:1021700001F0F4BD08B5BFF35F8F164B1A68120A61
:1021800012F0FC0FD1B204D13B221349134800F0E6
:102190008DFB00225A6010468A4216D11022DA6066
:1021A0000F4A1A611322DA600E4A1A611122DA60AC
:1021B0000D4A1A610D4ADA600D4A1A6107225A6007
:1021C000BFF34F8FBFF36F8F08BD9A601861013264
:1021D000E2E700BF90ED00E0946E0008E16E0008B9
:1021E00039F00206390702133FF50B131200008085
:1021F00039000213102300F007B8202300F004B8C0
:10220000302300F001B840239C46F0B404AE75467C
:10221000E80801D3EFF309860E4F0FCE0FC70FBCAE
:102220000FC74046494652465B460FC71DCE310098
:10223000A60A00D304316E0900D248311FC7EFF35C
:1022400009806946EFF3148663C76046014900F0D0
:1022500079F800BF2C250020F0B52C4E2C4F85B00E
:1022600000243546214656F8042B3846013400F048
:10227000C1FB0D2CF6D1AB6C02936B6C01932B6CF4
:10228000244C0093D5E90E23696B234800F0B2FB80
:102290002168224800F0AEFBE16AA26AA36AA06A44
:1022A000266BE76B000CCDE901670090C3F30723B1
:1022B000D2B21B4800F09EFBA36A1E0603D5616BD9
:1022C000184800F097FBA36A180403D5A16B1648C1
:1022D00000F090FBEB6C190712D5144800F08AFB54
:1022E0002B6DDA070FD5124800F084FBEB6C5B070F
:1022F0004CBF1048104805B0BDE8F04000F07ABB74
:102300000E4800F077FB0E48EEE700BF2C250020BA
:102310007E6F000800ED00E08C6F0008DB6F0008A6
:10232000E96F000838700008467000085470000813
:1023300063700008937000089F70000883700008A5
:102340007070000807B504460D461A48012100F0D8
:10235000D3FA68BB184800F04DFB302C19D0402C44
:102360001CD0202C1FD11548154C00F043FB1548FC
:1023700000F040FBFFF770FF134800F03BFB0D4BF4
:1023800000221A70002300932A461049204600F0CC
:10239000D9FC0F480F4C00F02DFBE8E70E480F4C1E
:1023A00000F028FBE3E70E480E4C00F023FBDEE7CD
:1023B0000024E7E780250020EE6E0008176F000874
:1023C0003E01FF80446F00084F6F00086E6F0008E9
:1023D000266F00083F01FF802F6F00084001FF803B
:1023E0003A6F00083D01FF8070B514461268002A5C
:1023F0000D4604990ADB6FF00046B24206D031B1B7
:10240000184602F0A9FF431C05D1206070BD10B131
:10241000AA4238BF8354236801332360F6E70000E3
:102420002DE9F04F8DB0914618229DF868309DF847
:1024300060500393074688460DEB02000021DDE95A
:1024400016AB03F03BFD039B002B14BF302320236E
:10245000012D049355D1BAF1000F7BF1000350DA3E
:10246000DAF1000A6BEB4B0B0295AB1EDBB20026D8
:102470000593059B012B56D8022D0AF00F030CBFC4
:10248000374A384AD35C06AA93554FEA1A1343EAEF
:102490000B734FEA1B129A4693465AEA0B0306F156
:1024A00001043ED1029B002B35D0039B3BB11B9B0B
:1024B00000934A462D2341463846FFF795FF199B66
:1024C000B41C9C420EDA1B9B00934A46049B414677
:1024D0003846FFF789FF199B013BA3421993F2DCB1
:1024E000029B53B1039B3BB91B9B00934A462D2390
:1024F00041463846FFF778FF013C34BB0DB0BDE8DC
:10250000F08F5AEA0B0302D000230293ADE7302389
:102510008DF818300124199B9C42EEDA00230293B7
:10252000D1E72646A5E7504659460A22002304F083
:1025300089F806AB30329A55504659460A22002394
:1025400004F080F882468B46A7E71B9B0093013C72
:1025500006AB4A461B5D41463846FFF745FFCCE7D0
:10256000AB700008BB7000082DE9F04F8BB01C4623
:10257000002306460D46DDF8508009931746AAB1A0
:10258000994213DB0CBF012301F1FF3507934FF094
:10259000000B17F80B306BB946B1079B33B9099B99
:1025A000AB4295BF079A079BF254735509980BB03D
:1025B000BDE8F08F252B40F03C810BF1010A17F8A4
:1025C0000A30203BDBB20D2B07D842F6090222FA73
:1025D00003F3DB0748BF0BF1020A17F80A302A2B76
:1025E0004AD100210AF101030434084617F803C058
:1025F000BCF12E0F07EB030265D192F801C0BCF1CC
:102600002A0F54D000230693C7F1010909EB0203F6
:1026100012F801CFACF1300C5FFA8CFEBEF1090F5D
:102620004AD9FA5C682A51D1FA185278682A0CBF44
:102630004FF0720C4FF0110C0CF0030A9A4417F88B
:102640000A90B9F1640F02D0B9F1690F6CD1BCF1F5
:10265000820F5CD1073424F00704F4E80223CDE9AB
:102660000408039101210291CDE90023294609AA1A
:102670003046FFF7D5FE94E0302B16D10AF1010A5F
:1026800017F80A30302BF9D00120BA440021AAEB08
:1026900007031AF8012B303A5FFA82FCBCF1090FEC
:1026A000A4D80A2303FB0121F1E70020EDE754F849
:1026B000042B02330692B4E7069B4FF00A0E0EFB82
:1026C00003C30693A2E76FF00042F3E76C2A08D138
:1026D000FA1852786C2A0CBF4FF0820C4FF0210C84
:1026E000AAE76A2A0AD07A2A0BD0742A0CD04C2A7C
:1026F00014BF4FF0000C4FF0610C9DE74FF0310C10
:102700009AE74FF0410C97E74FF0510C94E7BCF17A
:10271000110F54F8042B05D0BCF1720F08BF52B250
:10272000D3179CE712B2FBE7B9F1750F03D009F09C
:10273000DF03582B28D1BCF1820F0CD1073424F0D1
:102740000704F4E80223B9F1750FCDE904080391F9
:1027500014D1002187E7BCF1510F54F8042B0BD0A2
:10276000BCF1720F04D0BCF1110F03D00023EAE7D3
:10277000D2B2FBE792B2F9E7D317E4E7B9F1580F09
:102780000CBF032102216EE7B9F1630F0CD154F89D
:10279000043BCDF80080DBB209AA29463046FFF79A
:1027A00023FE0AF1010BF4E6B9F1730F15D154F8C9
:1027B00004BB0BF1FF3919F8013F002BF1D0069A49
:1027C000A2EB09021BEB020FEBD0CDF8008009AAA7
:1027D00029463046FFF708FEEDE7B9F1700F1BD12F
:1027E00054F8049BCDF80080302309AA29463046CE
:1027F000FFF7FAFD782309AACDF800802946304674
:10280000FFF7F2FD0023CDE903334A460323029389
:10281000CDF81480D31727E7CDF80080252309AA27
:1028200029463046FFF7E0FDB9F1250F18BFDA461B
:10283000B7E7CDF8008009AA29463046FFF7D4FD56
:10284000DA46AEE70FB41FB50849096806AB8968D8
:1028500053F8042B009100206FF000410393FFF721
:1028600083FE05B05DF804EB04B07047540300200C
:1028700013B500240094FFF777FE02B010BD07B532
:10288000134600900A4600206FF00041FFF76CFEEF
:1028900003B05DF804FB6FF0150070476FF0150092
:1028A000704702F0B9BF02F0D3BD000007B50B4678
:1028B000009201460022014800F044FA4401FF80E2
:1028C00003460122D3E84F0FC3E8412FC0B20029CD
:1028D000F8D17047D0E85F3F5B18C0E8523F002A4C
:1028E000F8D198B27047D0E85F3F5B1AC0E8523F1A
:1028F000002AF8D198B270470346D3E84F0FC3E8D7
:10290000421FC0B2002AF8D17047000000B589B05C
:1029100000F08AF8052101A8FFF7CAFA114E124DFE
:102920000424039B019A1A60304600F019FD019BB4
:10293000049A1B041360304600F012FD013CF0D1F4
:102940000424039B019A1A60284600F009FD019BAC
:10295000049A1B041360284600F002FD013CF0D1EC
:10296000DEE700BFF0490200801A060073B50022BE
:1029700001460446022000F07FFB0D2600F054F8CB
:102980000022254614F8013B1BB900F063F802B0A1
:1029900070BD0A2B09D10D2A07D001220DF10701C4
:1029A00002208DF8076000F067FB01222946022013
:1029B00000F062FB14F8012CE3E7000000B5A3B0BF
:1029C0000B460246842101A8FFF752FF832806D94F
:1029D000074B1A681B79CDF883208DF887300028C3
:1029E00002DD01A8FFF7C2FF23B05DF804FB00BFC2
:1029F000CB7000080FB407B504A951F8040B01917E
:102A0000FFF7DCFF03B05DF804EB04B07047EFF3B1
:102A10001080C04300F001007047EFF305800030E4
:102A200018BF01207047000008B5FFF7F1F9064A0A
:102A30001368591C04D13F2204490548FFF736FFAB
:102A40000133136008BD00BF90130020D070000850
:102A50001F710008044A136823B1013B13600BB9CE
:102A6000FFF7E8B9704700BF9013002008B50B4886
:102A7000FFF726FF28B1FFF7D7FFBFF34F8F20BF27
:102A8000FDE7FFF7CAFF08B1FFF740FFFFF7BFFF01
:102A90000028F9D0012000F03DFC00BFD013002039
:102AA0002DE9FF41464C0E462168C1F34173032BCB
:102AB0000CBF4D428DB2C1F30743804617464148D3
:102AC0002A46FFF797FF6FF498731D44132D0FD814
:102AD000DFE805F00A585B5E6167646A0E0E0E0E51
:102AE0000E0E0E0E0E0E0E6DA1683748FFF782FF18
:102AF0004046FFF73BFF61683448FFF77BFF4EB16C
:102B00003348FFF733FF3046FFF730FF394631488F
:102B1000FFF770FFA1683048FFF76CFF23682F4A6A
:102B20001A44012A05D92E4A934202D0033A93420D
:102B300041D1A06820B1C06C80F00800C0F3C00093
:102B4000E368002B39D05968264A002908BF11468E
:102B5000E2690392A269029262690192226900927B
:102B6000214D224A002818BF2A462148FFF742FF7C
:102B700021682048FFF73EFF1F4804B0BDE8F04140
:102B8000FFF738BFA1681D48B0E7A1681C48ADE752
:102B9000A1681C48AAE7A1681B48A7E7A1681B48D1
:102BA000A4E7A1681A48A1E7A1681A489EE71A4855
:102BB000FFF720FF9CE70020C2E70A49C8E700BFF3
:102BC000D41300207A710008CB71000873720008DA
:102BD000847200088C72000890720008C2FE007FA8
:102BE0004001FF80657100086F7100086D6F00087B
:102BF000A4720008FD7200084A730008E171000821
:102C0000F1710008007200081372000827720008B2
:102C10003B7200084A7200086072000870470000AA
:102C2000F0B5294D8FB035EA200528BF05460E4680
:102C300017460021302202A803F040F9234B0195EA
:102C40002B44012B01AC039605D9214B9D4202D0A8
:102C5000033B9D4232D1F36B0293736B08931D4B80
:102C60005B690493DA6B05925A6B1B6B06920793B0
:102C7000FFF7DAFE184A13680133012B136009D1FC
:102C800026460FCE154D0FC50FCE0FC50FCE0FC563
:102C900033682B600FCC124D0FC50FCC0FC50FCC76
:102CA0000FC523682B600F4B1B68A5F1300043B1A3
:102CB0009847FFF7CFFE00200FB0F0BD02970894B1
:102CC000CDE7FFF7ABFFF4E70101FF80C2FE007F15
:102CD0004001FF809C010020941300209C130020E1
:102CE000D4130020981300200FB407B501210D481C
:102CF0007546FFF701FE044688B901462A460A4890
:102D0000FFF78EFF224621460848FFF7C9FE05A9B6
:102D100004980191FFF752FE0548FFF727FEFFF7E1
:102D2000A5FE00BF802500200001FF805071000833
:102D30006C6F000800207047014B1878C0B27047D4
:102D40008025002080B506460C460A480121F04641
:102D500017461D46FFF7D0FD48B942463946304672
:102D6000FFF75EFF029A29462046FFF799FEFFF71C
:102D70007DFE00BF8025002013B5074C01212046B1
:102D8000FFF7A8FD034628B90090228803490448AC
:102D9000FFF7D8FF02B010BD0814002064730008CC
:102DA0002301048013B5094C01212046FFF79BFD48
:102DB0004FF6FF73984206D10023009322880449FE
:102DC0000448FFF7BFFF02B010BD00BF0814002089
:102DD0008673000824010480034B188880B2B0FA7F
:102DE00080F04009704700BF0814002008B5FFF7C5
:102DF0001BFEFFF7F1FF28B101F09CF8BDE8084089
:102E0000FFF728BE01F084F8F8E76FF01C00704768
:102E10006FF0150070470120704700207047704721
:102E2000034B186818B14FF0FF31FEF747B97047F0
:102E30000C250020024B186808B1FEF757B97047FF
:102E40000C250020F8B5074E15460C468F18BC42DD
:102E500005D014F8011B304600F0C6FCF7E7284601
:102E6000F8BD00BF5026002038B58DB215F0010422
:102E700005D0084800F0FCFE041C18BF0124EB0636
:102E800005D5044800F00CFF08B144F010042046BA
:102E900038BD00BF5026002010B5044602F0B4FC37
:102EA000204610BD10B50C462AB1044800F080FC45
:102EB0002070012010BD1046FCE700BF5026002006
:102EC00038B5084B0360084B1B680446154633B9F8
:102ED0000648FFF749F92946044800F019FF204643
:102EE00038BD00BFAC730008AC1400205026002091
:102EF0000020704700207047074A084913681844AB
:102F0000884289BF064B10600C224FF0FF308CBF07
:102F10001A601846704700BF48030020007C01205B
:102F200014270020012070470120704708B5FEF7E4
:102F300003FE08BD08B5FEF707FE08BD10B5044640
:102F4000037803F00303012B08D0FFF769FF237810
:102F500003F00302012A03D1FFF76CFF00200AE00F
:102F60002AB140F29C6204490448FFF79FFC43F0F9
:102F700002032370012010BD0C7400085D7400086A
:102F800008B5037803F00302022A05D040F2A562D7
:102F900006490748FFF78AFC23F0030343F00103C7
:102FA0000370BDE80840FFF745BF00BF0C74000880
:102FB0007B7400083F2870B504462EDC184D55F888
:102FC00020305A1C13D1022811DCFFF793FF03466F
:102FD00058B92046FFF78CFF034630B9114E3378BD
:102FE000BFF35B8FDB0704D50F4B45F82430184641
:102FF00070BD3046FFF7A2FF0028F5D04FF41652FF
:103000000A490948FFF75CFF3046FFF7B9FF084A55
:1030100008490548FFF786FFE6E70023E7E700BF1A
:10302000480200200C14002090140020F4730008C3
:10303000980100201F2E000838B50546FFF7BAFF9B
:103040000B4B002443F8254030B901F0CDFF092394
:1030500003604FF0FF3038BD03685B699847051E79
:1030600004DA01F0C1FF6D420560F2E72046F2E7A5
:1030700048020020FFF7E0BF38B50C461546FFF7C1
:1030800099FF38B901F0B0FF092303604FF0FF3416
:10309000204638BD03682146DB682A469847041E4F
:1030A000F6DA01F0A1FF64420460EFE738B50C46A0
:1030B0001546FFF77FFF38B901F096FF092303603B
:1030C0004FF0FF34204638BD036821469B682A46EE
:1030D0009847041EF6DA01F087FF64420460EFE7C8
:1030E00010B5FFF767FF044628B901F07DFF0923FB
:1030F0000360204610BD0368DB699847041EF8DAB8
:1031000001F072FF644204600024F2E72DE9F74FFA
:1031100006460F469146FFF780FC054630B1002376
:10312000009332462B492C48FFF70CFEFFF76FFC4B
:103130000028F4D0B9F1000F09DA01F055FF162389
:1031400003604FF0FF34204603B0BDE8F08F3046F7
:10315000FFF7C6FF044650B3204A12F806A02C46DB
:1031600090464FF00D0BA94521DD7A5D0A2A1AD150
:10317000BAF10D0F17D0AC420BDA2A1B39193046C1
:10318000FFF77AFF0028DCDB0444A542DBDC08F80B
:1031900006A0012212493046FFF76EFF0028D0DB5F
:1031A000D1D008F806B017F805A00135DBE7A14536
:1031B000C9DDA9EB040239193046FFF75DFF00288D
:1031C000BFDB24181FBF3F19044B17F8012C9A5579
:1031D000B9E700BFEE7400082F01018050140020F1
:1031E00028750008FFF77CBF7FB504460E461546DC
:1031F000FFF713FC30B10023009322461C491D4801
:10320000FFF7A0FDFFF703FC0028F4D0002D06DA3D
:1032100001F0EAFE162303604FF0FF3018E020466D
:10322000FFF75EFFE8B1144D01220DF10F012046BA
:10323000FFF73CFF0028EFDB0AD09DF80F300D2B85
:1032400008D12A5D0A2A2B55EED00A2333700120BB
:1032500004B070BD0A2B02D12A5D0D2AF3E72B556D
:10326000F4E72A4631462046FFF720FFF0E700BF8B
:10327000B27400082F0101801014002038B50C46EC
:103280001546FFF797FE38B901F0AEFE092303603B
:103290004FF0FF34204638BD036821461B692A469B
:1032A0009847041EF6DA01F09FFE64420460EFE7DF
:1032B000FFF7E4BF10B5FFF77DFE30B901F094FED3
:1032C000092303604FF0FF3010BD03689B699847E6
:1032D000041E04DA01F088FE64420460F2E7002074
:1032E000F2E7000008B50A4C23680546986801F02B
:1032F000BDFF2368D86801F0B9FF0120FFF7DAFFAE
:103300000220FFF7D7FF0DB1FFF700FBFEE700BF7C
:103310005403002008B5FFF7E5FF38B50D46FFF769
:1033200049FE044630B901F05FFE092303604FF007
:10333000FF3038BD0368DB699847002814BF4FF49D
:1033400000534FF400436B60236820469B6A984704
:1033500028610020EDE7FFF7E0BF02F055BA00005A
:10336000034B596A5A6A521A8242FBD3704700BF14
:10337000000C00401FB5002303620D4B002908BF5D
:103380001946031D02931C230446039368460B232E
:1033900000910193FDF77AFE206038B9FFF7CCFC6D
:1033A00020B93D2203490448FFF780FA04B010BD5C
:1033B0002A750008447500088975000810B50021B9
:1033C0000446FFF7D7FF204610BD000037B504467E
:1033D0004FF0FF310068FDF771FE054620B9236A02
:1033E0000133236203B030BDFFF7A6FC034600287B
:1033F000F8D100932A4602490248FFF7A3FC00BF18
:10340000AD7500081501028013B5036A013B036224
:103410000068FDF76BFE044648B1FFF78DFC0346DC
:1034200028B90090224603490348FFF78BFC02B0FD
:1034300010BD00BFBF7500081701028008B5FDF779
:1034400027F820B1E12202490248FFF72FFA08BD10
:10345000E2750008D3750008DFF834D00D480E4936
:103460000E4A002302E0D458C4500433C4188C42DE
:10347000F9D30B4A0B4C002301E013600432A24243
:10348000FBD301F069FDFCF7A5FE70477047000013
:103490000080012098010020A00B0020607B000824
:1034A000A00B002018270020FEE7000030B595B0E3
:1034B000274B002401941A6C42F080521A641B6C52
:1034C000244A03F080530193019B0294136823F470
:1034D000404343F400431360136803F440430293F2
:1034E000054608A8029B01F061FB0E9B022B11D13F
:1034F0000F230221CDE903314FF48052002303A8AA
:10350000CDE90532079301F095FAB0FA80F0400951
:1035100015B030BD0123002D08930CBF4FF480334C
:103520004FF4A023099302224FF48003CDE90E2328
:1035300008214FF4A8730420CDE910130723CDE927
:10354000120308A801F098F80028D1D02046DFE740
:10355000003802400070004030B595B00024204B88
:1035600001941A6C42F080521A641B6C1D4A03F0DD
:1035700080530193019B0294136823F4404343F466
:10358000004313601368099403F440430293029BC1
:103590000323089301230B9310230C9310934FF4F0
:1035A000A87104230225CDE9111308A80723CDE94A
:1035B0000E54139301F060F880B90F23CDE9033561
:1035C0004FF480530590CDE90630294603A801F059
:1035D00031FAB0FA80F0400915B030BD2046FBE763
:1035E000003802400070004008B50120FFF75EFF80
:1035F00028B9FFF7B1FF10B90148FFF775FB08BD07
:10360000287800082DE9F341A1F1F007BFB20F2F90
:1036100004460D461DD92D492846FEF771FC2B495D
:1036200080462846FEF782FC0F2F0646C4F800802D
:1036300007D90146284600F039FA0021284600F053
:10364000BBFA2268511C0BD1214922483422FFF7D2
:103650002DF921492846FEF753FC1F498046E0E733
:10366000731C03D135221A491C48F0E70121E1619E
:103670001B49A4F848500023C6F384368A4284F8D4
:103680004A602364C4E901332361237684F820303F
:103690006362C4E90A33E36084F8303063610AD1BD
:1036A0000193104B5A6C42F480725A645B6C03F4C1
:1036B00080730193019B204600F0A0FD10B10A48E1
:1036C000FFF712FB02B0BDE8F08100BFB47600083E
:1036D0003C7800089F78000868770008C9780008DF
:1036E0000020014000380240E278000830B505466D
:1036F00085B010220021684602F0E0FB95F84A20D0
:103700000123CDE90133122A4DD8DFE802F00C0B7A
:103710000A27292B2D2F31333537393B3D3F414681
:10372000480002230093214C636823F44003694658
:103730006360284600F0CEFE284600F005FE0A2110
:10374000284600F071FE60BB284600F0C0FE80B243
:10375000636823F44003636005B030BD0323E1E7F1
:103760000423DFE70523DDE70623DBE70723D9E7AB
:103770000823D7E70923D5E70A23D3E70B23D1E7AB
:103780000C23CFE70D23CDE70E23CBE70F23C9E7AB
:103790001023009307230293C5E71123F9E71223AF
:1037A000F7E70020D4E70020D6E700BF0023014060
:1037B00038B545680446204600F05AFA0028FAD089
:1037C0004423084A6B43D35862691AB95868C0F356
:1037D000080038BDE268586812B900F07F00F8E7C9
:1037E000C0B2F6E78425002070B5466805460C4651
:1037F000284600F055FA0028FAD044237343034AC0
:10380000D358C4F308045C6070BD00BF8425002059
:1038100008B5FFF76BFF07EE900AB8EE677ADFEDA9
:10382000037A67EE277A17EE900A08BD01088039FF
:1038300030B591FAA1F391FAA1F1B3FA83F30468D8
:103840005B000325B1FA81F105FA03F3490024EA8C
:1038500003038A401A43026030BD00007FB5002296
:103860002A4B07284FD8DFE800F004121E2A364EF4
:103870004E4200921A6B264842F001021A631B6BFB
:1038800003F001030093009B07B05DF804FB019275
:103890001A6B204842F002021A631B6B03F002030A
:1038A0000193019BF0E702921A6B1B4842F004025D
:1038B0001A631B6B03F004030293029BE4E7039279
:1038C0001A6B164842F008021A631B6B03F00803D8
:1038D0000393039BD8E704921A6B114842F010023D
:1038E0001A631B6B03F010030493049BCCE705924F
:1038F0001A6B0C4842F080021A631B6B03F08003C2
:103900000593059BC0E70848FFF7EEF90038024031
:10391000000002400004024000080240000C024087
:1039200000100240001C0240F8780008431C10B54B
:10393000044604D1772206490648FEF7B7FF4FF444
:10394000707100F0B3F804F00F040120A04010BD26
:10395000197900086679000870B504464B1C0E46BC
:10396000218216D0C1F30310FFF778FF05463046D9
:10397000FFF7DCFF238A074A656103F00F0320602D
:1039800052F82330A36105F110031835C4E902553C
:10399000636070BD7C790008B0F9100000F00CB9CC
:1039A000D0E905030A4611B91946FFF741BF0122C4
:1039B000FAE708B500F03CFB002008BD10B5FFF7A2
:1039C00033F8134B1348144A596A1468038811607A
:1039D0001B1B0B44B3F5803F014616D34FF47A719D
:1039E000B3FBF1F201FB1233038006E00132A3F5D1
:1039F0007A73B3F57A7FF9D20B80084C23681A44A6
:103A00002260FFF727F8206810BD0022F1E700BF11
:103A1000000C00409C140020A0140020A4140020DE
:103A20007047000008B501F0A5FA00F0CBFBFFF7E6
:103A3000DBFD01F09FFAFFF7F3FF024B01221A6052
:103A400008BD00BFA814002030B591FAA1F391FA87
:103A5000A1F1B3FA83F384685B000325B1FA81F125
:103A600005FA03F3490024EA03038A401A438260FB
:103A700030BD30B591FAA1F391FAA1F1B3FA83F315
:103A8000C4685B000325B1FA81F105FA03F349002C
:103A900024EA03038A401A43C26030BD012A02D0DF
:103AA000022A18BF0022FFF7E4BF00002DE9F84307
:103AB0000F46411C77D01FFA80F808F00F023B4BED
:103AC000C0F3031053F82250C7F38319FFF7C6FE63
:103AD000B9F10F0F07F007060CBF03224A4629462B
:103AE0000446FFF7B1FF032E58D8DFE806F01D1D8E
:103AF000021D18F0080FC7F383223AD02B0A93FA5D
:103B0000A3F1B1FA81F1406A93FAA3F389004FF06F
:103B10000F0CB3FA83F30CFA01F19B0020EA0101C8
:103B200002FA03F30B43636295FAA5F2B2FA82F24A
:103B300023685200032101FA02F223EA020295FAF5
:103B4000A5F3B3FA83F35B0006FA03F3013E1343D4
:103B5000012E236005D863683A074CBF2B43AB4363
:103B60006360C7F3011229462046BDE8F843FFF71A
:103B700095BF95FAA5F1B1FA81F1036A89000F208A
:103B800000FA01F123EA010195FAA5F3B3FA83F3F0
:103B90009B0002FA03F30B432362C5E7D5220449D5
:103BA0000448FEF783FEBDE8F88300BF7C79000877
:103BB000BC7900087974000838B5431C0D463FD025
:103BC00000F00F021F4BC0F3031053F82240FFF721
:103BD00045FE94FAA4F2B2FA82F35A000168032374
:103BE000934094FAA4F2B2FA82F20B405200D3400E
:103BF000013B012B1AD8EB1E022B436809D8234343
:103C0000032D43601AD101222146BDE83840FFF759
:103C100045BF23EA0403012D4360F4D0022D0BD0ED
:103C200021460022BDE83840FFF723BF05F0FD0321
:103C3000012BE8D0052DF1D10222E5E7052DEEE7B5
:103C400038BD00BF7C7900080FB407B5064B0749A3
:103C50001B6805AAD8680192FEF711FE03B05DF853
:103C600004EB04B0704700BF54030020077A00083B
:103C7000426844235343094AD3581A68120782B052
:103C800006D5002201921A6801925A680192019A9F
:103C90001868C0F3401002B0704700BF84250020B0
:103CA000426844235343034AD3581868C0F3C010F2
:103CB000704700BF842500204368144944225A43BA
:103CC00010B404685450531882685A60C2689A60ED
:103CD0000269DA6042691A61026A9A610022DA8432
:103CE000DA619A84DA859A85B0F91A20013206D110
:103CF00008225A6118465DF8044B01F0FEB8B0F98D
:103D0000182001320CBF04220C22F2E78425002087
:103D100010B581600C46FFF7CFFF28B1214603485C
:103D2000BDE81040FFF790BF10BD00BF077A000844
:103D3000094B98420BD0A3F54C43984209D003F5A8
:103D40005043984214BF4FF0FF30022070470020CC
:103D500070470120704700BF001001402DE9FF4768
:103D60000E4604464C4930461546FEF7C9F84B4905
:103D700080462846FEF7C4F801464046FEF79CF808
:103D8000454907463046FEF7D1F844498246284661
:103D9000FEF7CCF8022E81460AD0032D08D03E490A
:103DA0000220FEF7ADF840450CD13D48FEF79CFFE0
:103DB0004FF00108791C276007D13A493A483E2262
:103DC000FEF774FD4FF00008F4E7384B9F424FF0C8
:103DD000000314D10193364B5A6C42F010025A641E
:103DE0005B6C03F010030193019B3846FFF7A0FFC3
:103DF0000028606021DA9D222A492E48E0E72E4AF9
:103E000097420BD102932A4B1A6C42F400321A6487
:103E10001B6C03F400330293029BE6E7274A9742A8
:103E2000E3D10393224B5A6C42F020025A645B6C3C
:103E300003F020030393039BD7E751463046FFF777
:103E400035FE01213046FFF7B7FE49462846FFF709
:103E50002DFE28460121FFF7AFFE00234FF4165236
:103E6000C4E90223C4E90433236226836583204620
:103E7000FFF722FFB8F1000F0AD0114B11480122C1
:103E80001A6021464C2204B0BDE8F04701F07CBF27
:103E900004B0BDE8F08700BFE0770008987700081D
:103EA000317A0008667A0008B57A000800100140EF
:103EB00000380240D17A000800440040001401405C
:103EC000AC140020502600200E4BD86810F400508F
:103ED00018BF18680C4BDA681CBF80F04000C0F3B4
:103EE0008010910404D51B6813F0400F08BF012017
:103EF000064BDA68920404D51B6813F0400F08BF24
:103F000001207047001001400044004000140140AF
:103F100008B5FEF789FD064B1868012110F0010075
:103F200018BF084600F07AFBBDE80840FEF792BDD6
:103F30000070004030B58FB0FFF7C6FF0446002880
:103F400051D1FEF771FD00F00BF901210846274D14
:103F500000F076FB2146302202A82C6001F0AEFF73
:103F6000234B01941A6C42F080521A641B6C03F0CC
:103F70008053019302A8019B00F018FE02230293D4
:103F80000121102302A80894CDE9051300F074FB69
:103F9000044610B11748FEF7A7FE01460090142210
:103FA00002A801F08BFF694602A800F049FE0F232A
:103FB0000099029302A80694CDE90344059400F009
:103FC00039FD08B10C48E6E7FFF70EFB0B4B596AC9
:103FD0005A6A521AB2F5FA7FFAD300F0D9F80123DF
:103FE0002B60FEF737FD0FB030BD00BFA8140020D6
:103FF00000380240E37A0008087B0008000C00400B
:10400000074B084A13601A69910707D5DA689207C7
:1040100004D56FF002021A61FEF79CB8704700BF2A
:10402000000C0040A026002000487047307B0008AC
:1040300030B589B001A903A800F002FE00F096FD9A
:10404000002302931F4B01901A6C1F4C42F0080290
:104050001A641A6C02F008020292029A1A6A42F07A
:1040600008021A621A6A22F008021A62069AA3F576
:104070000B3323604FF0FF33E360144BFAB9B0FB0E
:10408000F3F00138002560600F482561A560C4E9A0
:10409000055500F043FE0E4B0E4A9B68C3F80821FD
:1040A0000D4B4FF480225A600748294600F070FEFD
:1040B0002268D36823F00203D36009B030BD40000A
:1040C000DDE700BF00380240A026002040420F007C
:1040D00000ED00E00140000800E100E00448026853
:1040E000D36823F00203D360002100F051BE00BF6B
:1040F000A0260020014B586A704700BF000C00400A
:10410000054B1B686FF0020258631A61DA6842F0CF
:104110000202DA60704700BFA0260020064B1B6831
:104120006FF002021A615A6942F002025A61DA68BB
:1041300042F00202DA607047A0260020034B1A68A2
:10414000D36823F00203D360704700BFA02600208D
:10415000024B1B686FF002021A617047A026002014
:10416000064B074A1B68596A11605A6B054B1A6067
:10417000054BDA68054B1A60704700BFA026002087
:10418000EC260020E8260020000C00409C260020A1
:10419000064B074A1B6812685A62064A12685A633D
:1041A000054B1A68054BDA60704700BFA026002057
:1041B000EC260020E82600209C260020000C004071
:1041C0007047000008B50B4B1A6842F400721A6081
:1041D0001A6842F480621A601A6842F480721A60A7
:1041E000032000F009FA0F20FFF7E3FBFFF7E8FFD9
:1041F000002008BD003C02407047000038B504466E
:10420000002800F09B80056C25B9FFF7F5FF656479
:1042100084F83C50236CDB0600F18E80236C23F481
:10422000885323F0020343F002032364444B5A688B
:1042300022F440325A605A6861680A435A6023681F
:1042400021695A6822F480725A605A6842EA01224F
:104250005A605A68A16822F040725A605A680A434C
:104260005A609A68E16822F400629A609A680A4388
:104270009A603449A26A8A4252D0996821F07061EA
:10428000996099680A439A609A68E16A22F04052FC
:104290009A609A680A439A609A68217E22F0020224
:1042A0009A609A6842EA41029A6094F82020002AB3
:1042B0003ED05A68616A42F400625A605A6822F439
:1042C00060425A605A68013942EA41325A60DA6AF9
:1042D000E16922F47002DA62DA6A013942EA0152D3
:1042E000DA629A6894F8301022F400729A609A6840
:1042F00042EA41229A609A68616922F480629A6077
:104300009A68002042EA81229A606064236C23F05C
:10431000030343F001032364002384F83C3038BDD9
:104320009A6822F070629A609A6822F04052B2E76E
:104330005A6822F40062C9E70120EDE70120EEE7A8
:10434000002301400100000F82B00023019390F888
:104350003C30012B5CD00268012380F83C3093682C
:10436000D9070CD5936813F001031AD1026C42F0FF
:1043700010020264426C42F00102426446E093681B
:10438000254943F001039360244B1B68B3FBF1F311
:1043900003EB43030193019B002BE3D0019B013B03
:1043A000F8E7036C23F4E06323F0010343F4807324
:1043B000036453685B0541BF036C23F4405343F42B
:1043C00080530364036C13F480531CBF436C23F0CD
:1043D000060343646FF02201002380F83C30116033
:1043E0000F49496811F01F0109D1906810F0405041
:1043F00010D1936843F08043936002B0704709493D
:104400008A4203D1906810F04050F2D01846F4E789
:104410000220F2E70846F0E740420F005003002078
:10442000002301400020014003689A68520570B5DE
:1044300004460D460BD59B68DE0508D5036C43F09A
:1044400020030364002380F83C30012070BDFFF797
:10445000B5FA064623681A6891070CD56FF0120268
:104460001A60226C42F4007222649A6812F0405F73
:1044700017D00020EAE7681CEDD065B923681B68F7
:1044800013F00203E6D1226C84F83C3042F00402BF
:1044900022640320DAE7FFF791FA801BA842EDD8E7
:1044A000D8E7207E0028E4D1DA6A12F4700F02D037
:1044B0009B685A05DDD4236C23F480732364236C3A
:1044C000DB04D6D4236C43F001032364BEE7036806
:1044D000D86C7047F7B50023019390F83C30012B5E
:1044E00066D00D688E680123092D80F83C30ACB28F
:1044F000036829D904EB4402DF681E3A4FF0070C29
:104500000CFA02FC27EA0C07DF60DF6806FA02F209
:104510003A43DA604968062901EB810224D8596BD5
:10452000053A1F26964021EA06015963596B04FAA1
:1045300002F20A435A632C4A934231D0002380F896
:104540003C30184603B0F0BD1F6905EB45024FF043
:10455000070C0CFA02FC27EA0C071F611F6906FA18
:1045600002F23A431A61D5E70C294FF01F010BD82C
:104570001E6B233A914026EA01011963196B04FA74
:1045800002F20A431A63D6E7DE6A413A914026EA0C
:104590000101D962D96A04FA02F20A43DA62CAE76F
:1045A000122D07D1114A536843F480035360C5E7C5
:1045B0000220C7E7A5F11003012BBFD80B4A5368AF
:1045C000102D43F400035360B8D1094B094A1B680E
:1045D000B3FBF2F20A2353430193019B002BADD0AE
:1045E000019B013BF8E700BF002001400023014090
:1045F0005003002040420F00074AD36823F4E063D1
:1046000000021B0400F4E0601B0C184340F0BF6084
:1046100040F40030D060704700ED00E0074A1369B5
:10462000012923F00403136104D130BF00BF00BF90
:1046300000BF704740BF20BF20BF704700ED00E0C3
:104640000B4A136823F0030318430A4B10601A69DE
:10465000012942F004021A6105D130BF1A6922F023
:1046600004021A61704740BF20BF20BFF6E700BFB9
:104670000070004000ED00E02DE9F341044608B968
:1046800001203EE00368DD0710D4236898075DD45D
:1046900023681A0700F19F8023685B0700F1BD8043
:1046A000A069002840F0208100202AE0A64B9A68EB
:1046B00002F00C02042A07D09A6802F00C02082AC1
:1046C0000AD15A68510207D59F4B1B689A03DCD563
:1046D0006368002BD9D1D3E76268B2F5803F13D16C
:1046E0001A6842F480321A60FFF768F9964D064660
:1046F0002B689B03C9D4FFF761F9801B6428F7D9A5
:10470000032002B0BDE8F0818F4DB2F5A02F2B68D9
:1047100007D143F480232B602B6843F480332B6054
:10472000E2E723F480332B602B6823F480232B6093
:10473000002AD9D1FFF742F906462B689F03A4D57A
:10474000FFF73CF9801B6428F7D9D9E77E4B9A68BC
:1047500012F00C0F07D09A6802F00C02082A11D14F
:104760005B685E020ED4784B1A68950702D5E26842
:10477000012A85D11A68216922F0F80242EAC102B1
:104780001A6085E7E268714BB2B101221A60FFF747
:1047900015F96D4D06462B68980707D52B682269D9
:1047A00023F0F80343EAC2032B6071E7FFF706F931
:1047B000801B0228EFD9A3E71A60FFF7FFF8624DCC
:1047C00006462B6899077FF563AFFFF7F7F8801B64
:1047D0000228F6D994E762695D4B7AB101221A602A
:1047E000FFF7ECF8584D06466B6F9F073FF554AF47
:1047F000FFF7E4F8801B0228F6D981E71A60FFF77B
:10480000DDF8514D06466B6F98077FF545AFFFF712
:10481000D5F8801B0228F6D972E74B4B1A6C12F0C0
:1048200080521DD101921A6C42F080521A641B6CA6
:1048300003F080530193019B0126464D2B68D90557
:1048400010D5A368404D012B1CD12B6F43F0010301
:104850002B67FFF7B3F83C4F804641F2883537E0CD
:104860000026EAE72B6843F480732B60FFF7A6F875
:1048700007462B68DA05E4D4FFF7A0F8C01B02282E
:10488000F7D93DE7052B04D12B6F43F004032B67C9
:10489000DBE72A6F22F001022A672A6F22F0040266
:1048A0002A67002BD5D1FFF789F841F288380746EF
:1048B0002B6F98070FD5FFF781F8C01B4045F7D93C
:1048C0001EE7FFF77BF8A0EB0800A8423FF618AF01
:1048D0003B6F9B07F5D5002E3FF4E2AE1A4A136CEE
:1048E00023F080531364DBE6174DAB6803F00C0331
:1048F000082B46D0184E00230228336034D1FFF72E
:104900005DF807462B68990128D4D4E90732134390
:10491000626A43EA8213E26A43EA0263A26A0A4CC9
:104920005208013A43EA02436B6001233360FFF708
:1049300045F8054623689A013FF5B6AEFFF73EF805
:10494000401B0228F6D9DBE600380240000047424F
:10495000800E47420070004060004742FFF72EF88B
:10496000C01B0228CED9CBE6FFF728F804462B68F7
:104970009B017FF599AEFFF721F8001B0228F6D9BD
:10498000BEE601283FF4BDAE6B68E26903F4800126
:1049900091427FF475AE216A03F03F028A427FF4B0
:1049A0006FAE616A47F6C0721A40B2EB811F7FF4A6
:1049B00067AEA26A520803F44031013AB1EB024FEC
:1049C0007FF45EAEE26A03F07063B3EB026F14BF74
:1049D0000120002095E600BF134908B58B6803F05D
:1049E0000C03042B1CD0082B1CD14A684B68496867
:1049F00013F4800314BF0D480D48C1F3881118BF8C
:104A0000002302F03F02A1FB000101F01BFE064B58
:104A10005B68C3F3014301335B00B0FBF3F008BDF7
:104A20000248FCE70248FAE70038024000127A0028
:104A30000024F4002DE9F0410D46044610B9012090
:104A4000BDE8F081444B1A6802F007028A4228D37D
:104A5000226897072DD4D00741D43F4B1A6802F043
:104A60000702AA4266D8226851076CD4130707D5FB
:104A70003A4A2169936823F4604343EAC10393608F
:104A8000FFF7AAFF354B364A9B68C3F30313D35C89
:104A9000D840344B1860344B1868FEF78AFF00206A
:104AA000CEE7CAB21A701B6803F007038B42C6D167
:104AB000CEE72A4B12F0040F1EBF996841F4E05173
:104AC0009960160742BF996841F460419960234993
:104AD000A0688B6823F0F00303438B60BBE7626838
:104AE0001E4B012A1CD11B6813F4003FA7D01B4E9C
:104AF000B36823F003031343B360FEF75FFF41F293
:104B000088380746B368626803F00C03B3EB820F82
:104B1000A3D0FEF753FFC01B4045F3D903208FE716
:104B2000911E01291B6802D813F0007FDEE713F005
:104B3000020FDBE7EAB21A701B6803F00703AB420F
:104B40007FF47DAF8FE70549E0688B6823F4E0537D
:104B500003438B608AE700BF003C024000380240FC
:104B6000387B0008500300204C030020044B054A0A
:104B70009B68C3F38223D35C034A1068D840704714
:104B800000380240487B000850030020044B054ACF
:104B90009B68C3F34233D35C034A1068D840704724
:104BA00000380240487B0008500300200F230360B8
:104BB000224B1A68510333D54FF4A02242601A6881
:104BC00002F00102C2601A68C2F3C40202611A6FE5
:104BD00052072CD505238360184B5A6F02F001024F
:104BE00042611A6812F0807F14BF022201228261A2
:104BF0005A6802F48002C2615A6802F03F020262FF
:104C00005A68C2F3881242625A6802F4403202F5CE
:104C10008032D20B82625B68C3F30363C362704766
:104C20001A6812F4803218BF4FF48032C6E71B6F47
:104C300013F0010318BF0123CDE700BF0038024085
:104C40000F2303600B4B9A6802F0030242609A68DC
:104C500002F0F00282609A6802F4E052C2609B683F
:104C6000DB0803F4E0530361034B1B6803F0070305
:104C70000B60704700380240003C02407047000063
:104C8000244A036890420ED0B0F1804F0BD0A2F5B9
:104C90007C42904207D002F58062904203D002F538
:104CA0008062904215D14A6823F070031343194A79
:104CB000904219D0B0F1804F16D0A2F57C429042BC
:104CC00012D002F5806290420ED002F580629042CE
:104CD0000AD0114A904207D002F58062904203D078
:104CE00002F58062904203D1CA6823F440731343F3
:104CF0004A6923F08003134303608B68C3620B6827
:104D00008362044B984204BF0B6903630123436130
:104D1000704700BF000001400040014010B504464C
:104D200030B390F83D3003F0FF021BB980F83C200F
:104D3000FFF7A4FF022384F83D302068211DFFF710
:104D40009FFF012384F84630002084F83E3084F829
:104D50003F3084F8403084F8413084F8423084F8A1
:104D6000433084F8443084F8453084F83D3010BD39
:104D70000120FCE7036A01F01F0110B501248C40FB
:104D800023EA04030362036A8A401A43026210BDE5
:104D900010B5044629B990F83E30012B1DD00120F2
:104DA00010BD042907D190F83F30012BF7D1022321
:104DB00080F83F3014E0082907D190F84030012BEB
:104DC000EDD1022380F840300AE090F84130012B09
:104DD000E5D1022380F8413002E0022380F83E3022
:104DE00001222068FFF7C6FF2368124A93420AD1C6
:104DF0005A6C42F400425A649A6802F00702062A8A
:104E000013D10020CCE7B3F1804FF5D00A4A93428A
:104E1000F2D002F580629342EED002F580629342B6
:104E2000EAD002F59A329342E6D01A6842F00102C3
:104E30001A60E6E700000140000400400268C16813
:104E400038B5136923F440530B4313610546836857
:104E50000069D168034368690343E86921F4164196
:104E600021F00C0103430B43D3605369A96923F478
:104E700040730B4353611F4B9A4203D003F5806389
:104E80009A4224D1FFF782FEEA691923B2F5004F56
:104E9000A0FB0301D5E900431CD11A4692184FF03C
:104EA00000035B4101F0CEFB6421B0FBF1F501FB97
:104EB0001503DB003233B3FBF1F303F007025B00B1
:104EC00002EB051203F4F8731344A36038BDFFF737
:104ED0004DFED9E79A009B0F01F0B4FB6422B0FBB2
:104EE000F2F102FB11031B013233B3FBF2F303EBCC
:104EF0000113EAE700100140704710B5044640B3C3
:104F000090F83D3003F0FF021BB980F83C20FFF71A
:104F1000F3FF2268242384F83D30D36823F4005340
:104F2000D3602046FFF78AFF23681A6922F4904273
:104F30001A615A6922F02A025A61DA6842F4005270
:104F4000DA6000202023206484F83D3084F83E306D
:104F500010BD0120FCE70000044B054A9A60D3F81D
:104F6000882042F47002C3F88820704700ED00E00A
:104F700000000008174A1849936803F00C03042B3B
:104F800010B50DD0082B0DD0144B0B60114B144AEB
:104F90009B68C3F30313D25C0B68D3400B6010BD56
:104FA000104BF2E75468506852686302C2F38812EB
:104FB00000F03F004CBF0B4B084BB3FBF0F35343E7
:104FC000044A5268C2F3014201325200B3FBF2F3C9
:104FD000DBE700BF00380240500300200024F4004B
:104FE000387B000800127A00014B1868704700BF38
:104FF0005403002070B500294AD005460C4610B174
:10500000836B002B47D0636EB4F90C20D80732D5E0
:10501000002A3DD02146284600F054F8E36A0646AF
:1050200033B1E169284698470028B8BF4FF0FF36F2
:10503000A3891A063CD4216B41B104F14003994283
:1050400002D02846FDF72FFC00232363616C21B1B9
:105050002846FDF728FC0023636400F071F9636EB5
:105060000022DB07A28128D5A06D00F04FFB00F0E5
:105070006DF9304670BD9105CCD4A06D00F048FBB1
:10508000B4F90C30002BC5D1666E16F001060AD0BB
:105090000026304670BD00F029F9636EB4F90C208B
:1050A000D807B5D4E7E7A06D00F034FB304670BDFB
:1050B00021692846FDF7F7FBBDE7A06D00F02AFB4C
:1050C000D2E700BFB1F90C309AB22DE9F0410C469D
:1050D0001107804648D4626843F40063002AA38124
:1050E0005DDDA56A002D57D000229BB2D8F8006084
:1050F000E169C8F8002013F4805254D101234046DE
:10510000A847431C66D0A389A56AE1695F0705D556
:105110006268236B801A0BB1E36BC01A024600234E
:105120004046A847451C48D1D8F80020B4F90C30B7
:10513000002A5CD01D2A01D0162A64D122690021E0
:10514000C4E9002123F40063A381216BC8F8006047
:1051500011B304F14003994202D04046FDF7A3FB8E
:1051600000202063BDE8F0812669AEB12568266085
:1051700091070CBF63690023AD1BA3600AE02B46B7
:105180003246676AE1694046B8470028A5EB00054A
:1051900006440ADD002DF2DC0020BDE8F081E26B60
:1051A000002A9EDCF8E7206DB0E7A38943F04003B6
:1051B000A3814FF0FF30BDE8F081B4F90C302269D3
:1051C000226023F4006300226260DA04A381BCD56C
:1051D0002065BAE7D8F80030002B94D01D2B0FD0F3
:1051E000162B0DD0A38943F04003A381D5E723F408
:1051F00000632169A381DB04C4E90012A5D5E7E7B8
:10520000C8F80060C8E743F04003A381C5E700BFCA
:1052100038B50D46044608B1836BA3B1B5F90C004F
:10522000B8B16B6EDB0701D4810515D52046294640
:10523000FFF748FF6B6EDA07044602D4AB899B0583
:105240000ED5204638BD00F051F8B5F90C00002805
:10525000E7D10446204638BDA86D00F059FAE5E7CD
:10526000A86D00F057FA204638BD00BF20B1054BAD
:1052700001461868FFF7CCBF034B0449186800F0DB
:10528000F5B900BF54030020507B000811520008FC
:1052900010B5002304468181C281C0E900338360D8
:1052A0004366C0E904338361194608225C3000F08C
:1052B00005FE07480749084A084BE362C4E907406E
:1052C000C4E9091204F15800BDE8104000F01CBA0E
:1052D000F55F00081960000859600008796000084F
:1052E000014900F0C3B900BFF54F000810B50446EE
:1052F000114800F00DFAA26BC2B904F53B730F48D8
:10530000C4F8E0220321C4E9B913E0630421606812
:10531000FFF7BEFF01220921A068FFF7B9FF0222B3
:105320001221E068FFF7B4FF0123A3630248BDE840
:10533000104000F0EFB900BFFC260020E152000849
:10534000014800F0E5B900BF10270020014800F037
:10535000E1B900BF10270020144B70B51D68064648
:105360000C460DB1AB6B9BB1636ED80702D4A38919
:10537000990516D528462246314600F0EFFD636EAA
:10538000DA07054602D4A3899B0505D5284670BDDA
:105390002846FFF7ABFFE7E7A06D00F0BBF9284612
:1053A00070BDA06D00F0B4F9E4E700BF5403002025
:1053B000F8B5244F0C460646FDF7B8FDBB685D689E
:1053C000C4F57E610F3125F00305294421F47F6186
:1053D00021F00F01A1F58054B4F5805F07DB0021B7
:1053E000304600F0F5FDBB682B44984204D03046AF
:1053F000FDF7A0FD0020F8BD6142304600F0E8FD59
:1054000001300DD0104BBA6819682D1B45F001050D
:105410003046091B55601960FDF78CFD0120F8BD71
:105420000021304600F0D4FDBA68831A0F2BDEDD70
:10543000064C0549246843F00103001B53600860D3
:10544000D5E700BF80070020B0140020880B0020A3
:1054500000295ED0F8B50F460646FDF767FD57F800
:1054600004CC754D2CF00103A7F10800C218A968FF
:105470005468914224F0030400F084801CF0010F72
:10548000546002EB040133D157F808EC4968A0EBF3
:105490000E0005F1080C87686745734401F00101AF
:1054A00060D0D0F80CE0C7F80CE0CEF80870002906
:1054B00000F08D8043F0010141601360B3F5007F7F
:1054C00030D2DB08591C6C689A10012393402343A7
:1054D00005EBC10255F831406B60083AC0E9024261
:1054E00045F83100E0603046BDE8F840FDF722BDE8
:1054F0004968C9070ED4234405F1080C9168614539
:1055000043F001046BD0D268CA6091604460C3501C
:10551000D4E7704743F00101B3F5007F47F8041C5E
:105520001360CED35A0A042A46D89A0902F13907E1
:10553000FF0002F13801EC19EA59083C944255D0B9
:10554000516821F00301994202D992689442F7D13F
:10555000D468C0E90224A060D0603046BDE8F840BD
:10556000FDF7E8BC002962D1D2E90221234443F0CF
:105570000104D1608A604460C3503046BDE8F84001
:10558000FDF7D8BC1CF0010F234407D157F8082CB5
:10559000801A1344D0E90212CA609160274A126847
:1055A00043F001019A424160A8609CD8244B3046E8
:1055B0001968FFF7FDFE96E7142A0AD9542A1DD868
:1055C0001A0B02F16F07FF0002F16E01B3E72344EB
:1055D00094E702F15C07FF0002F15B01ABE7C5E96C
:1055E0000400C0E902CC4460C3507CE76B688910BA
:1055F000012707FA01F119436960AAE7B2F5AA7F0A
:1056000006D8DA0B02F17807FF0002F1770192E782
:1056100040F254518A4206D89A0C02F17D07FF00ED
:1056200002F17C0187E74FF47E777E2183E743F028
:1056300001014160136056E7800700208C0B0020B9
:10564000E014002038B50B46074C054611461846B5
:1056500000232360FDF77FFE431C00D038BD236884
:10566000002BFBD02B6038BD142700202DE9F84318
:1056700010F538771FD0884606464FF00009D7E965
:105680000154013D11D4A389012B05F1FF3508D93F
:10569000B4F90E3001332146304602D0C04749EA02
:1056A00000096B1C04F16804EDD13F68002FE6D1BE
:1056B0004846BDE8F883B9464846BDE8F88300BFD0
:1056C00070B50D4E0D4D761BB61006D0002401347A
:1056D00055F8043B9847A642F9D1094E094D761B6F
:1056E00001F032F9B61006D00024013455F8043B1D
:1056F0009847A642F9D170BD900B0020900B002076
:10570000980B0020900B0020704700BF704700BF2F
:10571000704700BF704700BF70B50C46B1F90E105E
:10572000002996B015461E4614DB6A46FFF78AFF2D
:1057300000280FDB019A02F47042A2F50052B2FA7F
:1057400082F252094FF480634FF4006032602B60A4
:1057500016B070BDA289002312F08000336004D01F
:10576000402218462A6016B070BD4FF480632B604B
:1057700016B070BD8A8992070B4606D501F1430227
:1057800001211A60C3E90421704770B582B001ABF2
:105790006A460C460646FFF7BFFF009905463046AD
:1057A000FDF77FF8B4F90C3070B11649F163019A36
:1057B0000099206043F08003A381C4E904018AB901
:1057C0002B43A38102B070BD9A05FBD423F00303E1
:1057D00004F1430243F002030121A3812260C4E9E2
:1057E0000421EFE73046B4F90E1000F031FD10B996
:1057F000B4F90C30E4E7A38923F0030343F0010379
:105800001BB2DDE7E1520008024B01461868FDF7C4
:105810004AB800BF540300202DE9F04F01F10B05F9
:10582000162D83B0064623D8102900F2B980FDF763
:105830007DFB102518230220BA4F3B44A3F1080238
:105840005C68944200F0B980636823F0030323444A
:10585000D4E902515A68E96042F0010230468D6095
:105860005A60FDF767FB0834204603B0BDE8F08FAF
:1058700035F0070500F19480A94200F29180FDF710
:1058800055FBB5F5FC7FC0F0A2816B0A00F08F805C
:10589000042B00F27881AB0903F1390003F1380CD5
:1058A000C300A04F3B44A3F108015C68A14206D1AC
:1058B0000CE0002A80F22781E468A14206D06368E8
:1058C00023F003035A1B0F2AF3DD60463C69DFF81F
:1058D00068C264457CD0636823F003035A1B0F2A17
:1058E00000F38381002AC7E904CC80F27481B3F508
:1058F000007F80F02581DB08591C7A6857F83180D9
:10590000C4F808804FF0010E9B100EFA03F307EB6A
:10591000C10E1343AEF10802E2607B6047F83140EC
:10592000C8F80C408210012494409C4256D81C4276
:1059300006D120F0030064001C4200F10400FAD0FC
:1059400007EBC009CE468046DEF80C309E4507D1F5
:1059500025E1002A80F22C81DB689E4500F01F8142
:10596000596821F003014A1B0F2AF2DDD3E9028EA8
:105970005C1945F001055D6042F00105C8F80CE0D6
:105980003046CEF80880C7E90444C4E902CC65601B
:105990005A500093FDF7CEFA009B03F1080402E091
:1059A0000C2333600024204603B0BDE8F08F4FF491
:1059B000007340204FF03F0C73E7DC68A34208BF40
:1059C00002307FF441AF3C69DFF86CC1644582D19D
:1059D0007B688210012494409C42A8D9BC6863680B
:1059E00023F00308A84503D3A8EB05030F2B7ADCAB
:1059F000DFF848914C4BD9F800201B6801322B444A
:105A000004EB080A00F03C8103F580530F3323F4C4
:105A10007F6B2BF00F0B5946304600F0D9FA411C32
:105A2000024600F0FC80824500F2F7803F4B186888
:105A300058441860014600F05781D9F800000193DE
:105A400001301BBFA2EB0A0A5144C9F800201960BB
:105A500012F0070A00F02081CAF108010A44CAF5D1
:105A6000805193440831A1EB0B01C1F30B09494666
:105A70003046009200F0ACFA421CDDE9002300F051
:105A80005881801A00EB090B1868BA604BF00101CD
:105A90004844BC425160186000F03281B8F10F0FE9
:105AA00040F230816168A8F10C0C2CF0070C01F079
:105AB000010104EB0C0E41EA0C014FF00508BCF1AA
:105AC0000F0F6160CEE9018800F23B8151681446F6
:105AD000174B1A68824238BF1860164B1A68824208
